:10000000004000208946000081460000854600002F
:10001000814600008146000081460000000000008B
:100020000000000000000000000000008146000009
:10003000814600000000000081460000814600006B
:100040003D2900007536000095360000B5360000E9
:10005000D536000081460000CD3400009D340000FC
:10006000D52700006937000071370000652C0000BB
:100070006D2C0000AD310000AD210000BD4000003E
:10008000D540000081460000F1240000A52D0000AD
:10009000494100005941000095310000A1310000A4
:1000A000E1400000F1400000154100002541000042
:1000B00099230000A923000081460000814600002A
:1000C0008146000069450000E945000075320000E6
:1000D0007D310000893100000944000081460000A4
:1000E000752C00004D340000C940000009340000A8
:1000F0007D4100007D2C0000B923000000000000BD
:1001000000000000000000000000000000000000EF
:1001100000000000000000000000000000000000DF
:1001200081460000814600008146000081460000B3
:1001300081460000814600008146000081460000A3
:10018000FFFFFFFFFFFFFFFFFFFFFFFFFFFFFFFF7F
:1001900003329CA77F000000FFFFFFFFFFFFFFFF70
:1001A00010B5054C237833B9044B13B10448AFF3B1
:1001B00000800123237010BD0018042000000000FF
:1001C00090E3000008B5034B1BB103490348AFF3AC
:1001D000008008BD000000000418042090E3000027
:1001E000154B002B08BF134B9D46A3F5803A002109
:1001F0008B460F461348144A121A06F015F80F4B97
:10020000002B00D098470E4B002B00D098470020C1
:10021000002104000D000D48002802D00C4809F010
:10022000A3F805F08FFC2000290000F029F805F064
:1002300079FC00BF00000800004000200000000022
:1002400000000000001804208020042069930000B2
:10025000C9A2000010B503F04FF808B1012010BD8D
:100260000121084603F0AEF80028F7D1012103F080
:10027000A9F804460028F1D104F000FA204610BD88
:10028000F0B599B0FFF7E6FF002855DB002406AB78
:100290000CA905A80694CDE90C4301F043F8002809
:1002A0004ADB4FF4E132032502AB05988DF8084094
:1002B0008DF809408DF838408DF80A50CDE90F23AC
:1002C00001F0A8F8002837DB0EAB0AA903A88DF8C7
:1002D00028400B9304F05AFE00282DDB4FF47A726D
:1002E000164B174F174E93E80300ADF84C200890BB
:1002F0008DF8241008AA14AB11A907A81594149717
:100300008DF855501296CDE91642119300F080FCFD
:10031000002811DB01A904A800F0ECFA00280BDB8F
:10032000079B094A0949039804F0CAFD002803DB2A
:10033000039804F0C1FDFBE719B0F0BD10D900002F
:10034000809698000000042018D900003C08042082
:1003500070B504460D46164682B00DF107020846F8
:100360000C4906F0F3F99DF807306168193301EB89
:100370000311204600F0E0FB9DF80720636831463A
:1003800003EB02132846D3F89431034A06F076F9BA
:1003900002B070BD30D9000034D9000070B50446F9
:1003A0000D46164682B00DF1070208460C4906F0CC
:1003B000CDF99DF807306168213301EB0311204628
:1003C00000F0BAFB9DF807206368314603EB021387
:1003D0002846D3F81432034A06F050F902B070BD33
:1003E00030D9000034D9000070B504460D461646D9
:1003F00082B00DF1070208460C4906F0A7F99DF8F6
:1004000007306168293301EB0311204600F094FBAB
:100410009DF807206368314603EB02132846D3F8A2
:100420009432034A06F02AF902B070BD30D90000B8
:1004300034D9000070B504460D46164682B00DF161
:10044000070208460C4906F081F99DF807306168FB
:10045000313301EB0311204600F06EFB9DF80720BD
:100460006368314603EB02132846D3F81433034A7A
:1004700006F004F902B070BD30D9000034D9000094
:1004800070B5044616460D46416800F055FB63689A
:1004900031462846BDE870405B68014A06F0EEB878
:1004A00034D9000070B5044616460D464168103137
:1004B00000F042FB636831462846BDE870405B6946
:1004C000014A06F0DBB800BF34D9000070B504461D
:1004D00016460D464168303100F02EFB6368314608
:1004E0002846BDE870405B6B014A06F0C7B800BF04
:1004F00034D9000070B5044616460D4641684031B7
:1005000000F01AFB636831462846BDE870405B6C1A
:10051000014A06F0B3B800BF34D9000070B50446F4
:1005200016460D464168503100F006FB63683146BF
:100530002846BDE870405B6D014A06F09FB800BFD9
:1005400034D9000070B5044616460D464168603146
:1005500000F0F2FA636831462846BDE870405B6EF1
:10056000014A06F08BB800BF34D9000070B50446CC
:1005700016460D464168703100F0DEFA6368314678
:100580002846BDE870405B6F014A06F077B800BFAF
:1005900034D90000F8B51D46044617460E46B3F997
:1005A00000104368093103EB011100F0C5FAB5F9F9
:1005B00000006368394603EB0013D3F894303046EB
:1005C000C3F30233024A06F059F80120F8BD00BF18
:1005D00034D900002DE9F0411D46044617460E4669
:1005E000B3F900104368093103EB011100F0A4FADC
:1005F000B5F900006368394603EB0013D3F8943073
:100600003046BDE8F041C3F34413014A06F036B862
:1006100034D900002DE9F0411D46044617460E4628
:10062000B3F900104368093103EB011100F084FABB
:10063000B5F900006368394603EB0013D3F8943032
:100640003046BDE8F04103F01F03014A06F016B83A
:1006500034D9000030B50446154685B00DF10E03BF
:100660000DF10D0208460A4906F070F89DF80D20BC
:100670006368193203EB0213BDF80E10DA68596093
:10068000009220460ECB00F06DFA284605B030BD32
:1006900028D9000030B50446154685B003AB0DF1EE
:1006A0000B020846094906F051F89DF80B206368D3
:1006B000213203EB02130399DA6859600092204655
:1006C0000ECB00F04FFA284605B030BD28D9000007
:1006D00030B50446154685B003AB0DF10B02084654
:1006E000094906F033F89DF80B206368293203EBC3
:1006F00002130399DA685960009220460ECB00F08D
:1007000031FA284605B030BD28D9000030B504467E
:10071000154685B003AB0DF10B020846094906F0FA
:1007200015F89DF80B206368313203EB021303992F
:10073000DA685960009220460ECB00F013FA284682
:1007400005B030BD28D9000030B50446154685B047
:100750000DF10E020846084905F0F8FF6368BDF880
:100760000E10DA6959610092103320460ECB00F06A
:10077000F9F9284605B030BD30D9000030B504463F
:10078000154685B003AA0846074905F0DFFF6368F0
:100790000399DA6B59630092303320460ECB00F098
:1007A000E1F9284605B030BD30D9000030B5044627
:1007B000154685B00DF10E020846084905F0C6FF42
:1007C0006368BDF80E10DA6C59640092403320461D
:1007D0000ECB00F0C7F9284605B030BD30D9000077
:1007E00030B50446154685B003AA0846074905F00A
:1007F000ADFF63680399DA6F596700927033204642
:100800000ECB00F0AFF9284605B030BD30D900005E
:1008100070B51E460546144684B00DF10E0208461A
:100820000D4905F093FFB6F900206B68093203EB20
:100830000213BDF80E2059681203D86821F4E04174
:1008400002F4E0420A435A6000900ECB284600F0C2
:1008500089F9204604B070BD30D9000070B51E463D
:100860000546144684B00DF10E0208460D4905F008
:100870006DFFB6F900206B68093203EB0213BDF877
:100880000E2059685201D86821F4787102F4787208
:100890000A435A6000900ECB284600F063F92046C8
:1008A00004B070BD30D9000070B51E460546144630
:1008B00084B00DF10E0208460D4905F047FFB6F968
:1008C00000206B68093203EB02135A68BDF80E1062
:1008D000D86801F01F0122F01F020A435A600090FD
:1008E0000ECB284600F03EF9204604B070BD00BF94
:1008F00030D9000008B50021012005F0D5F8B0FA84
:1009000080F04009404208BD00222DE9F04784B044
:100910000092CDE901220392002800F08F80002987
:1009200000F08C808046086800F03F0343F04003ED
:1009300002288DF8003079D09146B8F90840D8F8EF
:1009400000000B896CBB01339BB21A440F4692B274
:10095000694600F063FC002820DBB8F90830B9686C
:10096000012B21D0B9F1000F06D004AB0B44D8F80D
:10097000042013F80F3C53600024A1427C600DDD7D
:1009800001231A4604AD2A44013312F8102CDBB2BD
:100990008B4202EB04241A46F4DD7C6004B0BDE80F
:1009A000F08702339BB2D0E73A688C1C02F03F021A
:1009B00004EB090642F04002012E8DF808200BDD01
:1009C0001A4604AD2A44013312F8105CDBB2B3427C
:1009D00002F8085C1A46F4DB09EB040313F0FF028B
:1009E000C0D0002302F1FF3A5FFA8AFA0DF1090242
:1009F0000DF1080E9244082480221EF801CB1CEA57
:100A0000020F14BF01260026DD095B00AE42DBB2F7
:100A100018BF83F00703013C4FEA5202EFD1F245C1
:100A2000E9D1002B9ED06FF00100B7E7D8F8043071
:100A30005B69C3F380291FFA89F27EE74FF0FF302C
:100A4000ACE700BF84B02DE9F041002482B009ADCD
:100A500085E80E00CDE900440B9E00284FD00B46E0
:100A6000A64203F03F030A998DF800300DDD2346BE
:100A700022460133DBB2B21A02AC2244B34202F87E
:100A8000081C1A464FEA2121F3DBB0F908301FFA9F
:100A900086FE006833B35FFA86F8B8F1FF0F2CD0FA
:100AA000EC4600230DF101029044082180221CF83D
:100AB000017B174214BF01250025DC095B00A5421C
:100AC000DBB218BF83F0070301394FEA5202F0D1BD
:100AD000C445EAD102AA16440EF1020206F8073C08
:100AE00092B202E00EF1010292B2694600F096FB6A
:100AF00002B0BDE8F04104B070470023EAE74FF0D0
:100B0000FF30F5E7A8B1F8B50C460546466806F192
:100B10006007013C0AD03946284600F00DF800284D
:100B200003DB706E10F04000F3D1F8BD6FF00200EF
:100B3000F8BD4FF0FF30704738B50B680D46062BF7
:100B4000044602D0B0F90A302BB929462046BDE848
:100B50003840FFF7D9BEB0F90C10FFF7D3FF0028DB
:100B6000F3DA38BD84B070B5B0F90A6082B007AC72
:100B7000054684E80E002EB1B0F90C10FFF7C2FF55
:100B8000002806DB94E80E000A9C28460094FFF734
:100B900059FF02B0BDE8704004B0704790B170B525
:100BA000064645684C1E631C04F1FF3408D02946F4
:100BB0003046FFF7C1FF002803DB6B68DA06F2D48A
:100BC000002070BD4FF0FF30704700BF10B582B0FD
:100BD00004466B460D4A92E8030083E8030094B193
:100BE00019460822206800F019FB0023B4F90C1004
:100BF00023812046FFF7D2FF0446042000F048FA84
:100C0000204602B010BD4FF0FF34F9E760DC000071
:100C1000F0B5074683B010200C4604F0D7FF00283B
:100C200038D062682389426083812168054600F0DC
:100C30004BFA00281FDB2846FFF7C8FF00281ADB05
:100C400001266B686E81002408E0E3B2072B14D004
:100C50000133DBB2282B0DD86B68013403EB04138E
:100C6000DA68012AF1D100920ECB2846FFF77AFF0D
:100C70000028EADA3D6003B0F0BD6B685A6F12F0ED
:100C8000040114BF2E81298112F0400214BF6E812D
:100C90006A81E2E74FF0FF30EDE700BF06494DF80B
:100CA00004BDD1E900BC1BF101024CF10003C1E914
:100CB00000235DF804BB7047201804202DE9F043A1
:100CC000D0F80C8083B098F808300BB30D4641681B
:100CD000364BB1F57A7F0446D3E900671ED8D8E9D0
:100CE0000023B61A67EB0307B946A6FB016701FBB1
:100CF00009774FF47A7200233046394604F052FDEA
:100D00002860A36818442860002003B0BDE8F08381
:100D1000836800200B6003B0BDE8F083244B0DF125
:100D20000601187801F094FFD8E900014FEA471C4A
:100D30007201921B4CEAD66363EB07034FEA830C04
:100D40004FEA820E4CEA927C1EEB06024CEB070344
:100D5000DF00D60047EA527732463B460027BDF80F
:100D60000660DFF854C0C6F5CB461036ACFB06C6AD
:100D7000F608B6B212EB060843EB0709894508BF2F
:100D8000804503D218F57A7849F100096668B8EB16
:100D9000000269EB0103A2FB0601064A06FB0311F0
:100DA000002304F0FFFC2860ABE700BF20180420FC
:100DB0003018042040420F004FECC44E58B151B1DE
:100DC0002DE9F04F2F4B4E6885B09E4205D901208A
:100DD00005B0BDE8F08F0120704705460C460120A4
:100DE000102104F061FE834628600028EFD0102116
:100DF000012004F059FE814600283CD0DFF890A085
:100E0000DAF8007087B1DFF88C80CBF80C902B6893
:100E1000A268D8F800100137ABF800100020CAF81B
:100E20000070C3E90162D3E72688DFF868800123F8
:100E30003A46F0B21449C8F8006001F05FFE0123A1
:100E4000124A8DF804708DF806708DF805308DF813
:100E500007308DF80C308DF80D30029201A998F80A
:100E6000000001F09DFE0628F8D0DAF80070D5F8F1
:100E700000B06668C9E7584604F0B0FEC5F80090B7
:100E8000A5E700BF40420F009D0C000090659065F3
:100E90002C1804203018042010B32DE9F04BC5683D
:100EA00082B02B7AC3B92B4E04463368D3B10022EB
:100EB0006368ADF80620B3F57A7F1BD8264BD3E9DB
:100EC000002301203168287201440020C5E9002375
:100ED000316002B0BDE8F08B012002B0BDE8F08BBC
:100EE000012070471D4F0121387801F08DFE062842
:100EF000F9D0DCE7194B0DF10601187801F0A8FED6
:100F0000154BBDF80610D3E900894FEA49104FEAA6
:100F10004812B2EB080240EAD8634FEA820463EB5E
:100F20000903980014EB08031F4640EA927040EB57
:100F30000904E00040EA57708046C1F5CB410848FB
:100F40001031A0FB0131FC00C908621848F1000310
:100F5000B7E700BF28180420201804203018042008
:100F60004FECC44EB8B170B5C56882B02A7A044659
:100F700012B9012002B070BD0C4E01A9FFF79EFE10
:100F80003368019A012BA26007D00020013B336037
:100F9000287202B070BD01207047054C00212078F6
:100FA00001F032FE0628F9D03368EEE72818042055
:100FB0003018042010B109B1FFF780BE012070473E
:100FC000D8B12DE9F04BC56882B095B100224368D5
:100FD0000446B3F57A7F0E46ADF806200FD81E4BB7
:100FE000D3E900230020C5E90023A66002B0BDE8D4
:100FF000F08B012002B0BDE8F08B01207047174B49
:101000000DF10601187801F023FE134BBDF8061010
:10101000D3E900894FEA49104FEA4812B2EB0802BF
:1010200040EAD86363EB09039800970040EA9270A6
:1010300017EB080240EB0903D80040EA52708146E2
:10104000C1F5CB4106481031A0FB0131D700C908DA
:101050007A1849F10003C5E720180420301804204D
:101060004FECC44E30B5044683B00D460021FFF767
:10107000A7FF2046FFF710FF01A92046FFF79AFFC0
:10108000019BAB42F8D32046FFF76CFF03B030BDA5
:1010900030B50C4C85B0236805462BB1294618465F
:1010A000FFF7E0FF05B030BD4FF47A726946204685
:1010B000ADF80030CDE90123FFF780FE0028F1D123
:1010C0002368EBE73418042078B171B12DE9F84FAB
:1010D000CF683FB13B78022B04D891F80480B8F177
:1010E000030F04D90120BDE8F88F012070470646A0
:1010F0000C460120102104F0D7FC81460028F1D0D5
:101100000C21012004F0D0FC8246002875D0012576
:10111000386805FA08F8CAF80000397989F80480B7
:1011200097F800B0DFF8F0802268637958F82B4018
:101130008AF80410C9F80CA0C9F8002089F8053015
:1011400044B1236B002001332363CAF80840C6F87A
:101150000090C8E73C21284604F0A6FC044600287D
:1011600053D0584604F12C032C22214602F0CEFB2A
:10117000002847D1D9F80010E06AD9F80C5002F0E5
:1011800031FC00283ED104F13401E06A02F04CFC4D
:10119000002837D1636B99F80410C9F80030E06A71
:1011A00002F06AFC99F8043099F8051084F8383098
:1011B00001F00101E06A02F063FC99F80510E06AB1
:1011C000C1F3400102F048FC697899F8053000311C
:1011D00018BF012184F83930E06A02F0E1FB6B7836
:1011E000A978E06A84F83A3002F0CAFB3B78AA7822
:1011F00048F8234084F83B20A3E7484604F0EEFC7F
:10120000012070E7204604F0E9FC484604F0E6FCC3
:10121000504604F0E3FC65E73818042000287DD030
:101220002DE9F041C56884B0AE688046002E71D0CB
:101230000F46736B01681446994204D0F06A02F0BD
:10124000D1FB002866D198F8041096F838308B420C
:1012500006D0F06A02F010FC98F8043086F83830B6
:1012600098F8051096F839308B420FD001F0010143
:10127000F06A02F005FC98F80510F06AC1F340012D
:1012800002F0EAFB98F8053086F83930697896F86C
:101290003A308B4208D0003118BF0121F06A02F0C9
:1012A0007FFB6B7886F83A30A97896F83B308B4212
:1012B00005D0F06A02F064FBAB7886F83B304CB3A3
:1012C00040F20113ADF80C302B79EA788DF80E302E
:1012D0008DF80F2007E002F0E1FED8B9A41BA4B2FC
:1012E0003744ECB12B79264623B1B4F5006F38BFF3
:1012F0004FF400666B78AA68012BADF80860009780
:10130000ADF80A600197D06A6946E4D102F068FD41
:101310000028E3D0012004B0BDE8F081012070472F
:101320002046F8E740B139B12DE9F843154F3C6844
:1013300024B10120BDE8F8830120704705460E4620
:101340000120082104F0B0FB804628600028F0D07E
:101350005C21012004F0A8FB814660B1336828308D
:101360003021C8F80030C8F8049002F045F9012394
:1013700020463B60DEE7404604F030FCC5F80090B4
:10138000D7E700BF4418042018B338B54568F5B155
:101390001D4B1B68DBB1072919D86B1893F8203057
:1013A000ABB103290C461BD9042914D005291FD041
:1013B000062914BF4FF480624FF40072134B1A6079
:1013C0000121AB6DA1400B43AB65002038BD01206E
:1013D00038BD012070474FF480420C4B1A60EFE794
:1013E0000B4B15F8211013F8240002F015F9E7E76C
:1013F0006B69002BE4D0D3E90021D368012218687F
:1014000001F068F9DCE700BF4418042000E100E0C7
:1014100068DC0000D8B138B54568B5B1234B1B680E
:101420009BB1AB6DDC073BD4990734D45A072DD45C
:101430001C0726D40446D8061DD4990615D45A068E
:101440000DD413F0800004D138BD012038BD012037
:10145000704720460721FFF797FF002038BD06217F
:101460002046FFF791FFAB6DEBE705212046FFF724
:101470008BFFAB6DE3E704212046FFF785FFAB6DE3
:10148000DBE710220A4B1A60AB6DD3E70822084B4A
:101490001A60AB6DCCE70422054B1A60AB6DC5E753
:1014A0000222034B1A60AB6DBEE700BF4418042054
:1014B00000E100E070B50469E1B101290BD1A26936
:1014C000002A37D183682274002B32D0BDE87040E7
:1014D000C0681146184713460021A58821772B4381
:1014E0008568A380217425B32B46BDE87040C06891
:1014F00002211847626A3AB983682277CBB1BDE806
:101500007040C06801211847B2F5806F154628BFAA
:101510004FF48065042AA2EB050363622A4694BF58
:1015200000230123216A206800F0C8FD236A2B44B0
:10153000236270BDB2F5806F154628BF4FF48065F9
:10154000042AA2EB0503A3612A4694BF00230123CA
:101550006169206800F098FD63692B44636170BD88
:1015600038B504690546D4E90203C01A04F036FB15
:1015700000232869C4E9023304F030FB2846BDE8A3
:10158000384004F02BBB00BF98B32DE9F0430F4661
:1015900085B081B31546D0F810804AB901230120E7
:1015A000B8F804201343A8F8043005B0BDE8F08370
:1015B00098F81C60002EFDD10DF10C09B5F5806F77
:1015C0002C4628BF4FF48064042DD8F8000007EBA8
:1015D00006012246CDF8009094BF0023012300F0BD
:1015E000A3FD264458B92D1BE8D1204605B0BDE81F
:1015F000F08301207047012005B0BDE8F083BDF8FD
:101600000C30CCE768B32DE9F0430F4685B021B329
:10161000154612B3D0F8108098F81060002EFDD156
:101620000DF10C09B5F5806F2C4628BF4FF480648E
:10163000042DD8F8000007EB06012246CDF80090F3
:1016400094BF0023012300F053FD264458B92D1BFD
:10165000E8D1204605B0BDE8F083012005B0BDE823
:10166000F083012070470120B8F80420039B134346
:10167000A8F8043005B0BDE8F08300BF70B169B1CF
:101680008B685BB10B784BB92DE9F043484B87B0C1
:101690001F682FB1012007B0BDE8F083012070471B
:1016A000012506460C46284614211D6004F0FCF96D
:1016B0008146002867D02821284604F0F5F98046A5
:1016C000002863D0C9F81000B321284604F0ECF9D3
:1016D0000346C8F8080000285FD0C6F80090C21C76
:1016E000616822F003022078D31AC8E90223C9F8FE
:1016F000041089F80000B023CDF800800221A5680D
:1017000000F0FEFBC0B9AB786A782978D8F8000001
:1017100000F02CFD80B9274D4FF416532A4661681E
:1017200001E052F80C3F8B420DD001370A2FF8D15F
:1017300005A9002001F026FE3068FFF711FF002305
:1017400001203360A7E705A9002001F01BFE1A4B1A
:10175000059A9A42F0D107EB470705EB8705AC7A6B
:10176000D8F80000AB880094AA79298900F00CFD14
:1017700004460028E0D13268D8F800000F4900F094
:10178000EFFC204687E73060284684E7484604F0AF
:1017900025FAC6F8008028467DE70390404604F00D
:1017A0001DFA484604F01AFA039B2846336072E794
:1017B0004818042088DC000080BA8C01B5140000B1
:1017C00090B138B503696BB1044600250178074A2A
:1017D000186842F8215000F051FB2046FFF7C0FE88
:1017E000284638BD012038BD012070474818042024
:1017F000401A704720B1436900201B681960704788
:101800004FF0FF30704700BF20B1436900205B6894
:10181000196070474FF0FF30704700BF48B141B1C9
:1018200000230B60426912681AB1184613680B60F6
:1018300070474FF0FF30704748B141B100230B6053
:10184000426952681AB1184613680B6070474FF02E
:10185000FF307047F0B170B544690E4601200C218D
:10186000656804F021F990B10023C0E90065836048
:1018700005B1A86000222368C0E90152606023B16D
:10188000A36800200133A36070BD2060F8E74FF02B
:10189000FF3070BD4FF0FF30704700BF48B341B319
:1018A00000230B60436970B59C68FCB11868D0E9EF
:1018B000015205B1AA605E6892B155601D68AA42E6
:1018C00009D01A6086B10268013C9C600A6004F08D
:1018D00085F9002070BD5E60002EF4D11E60F2E735
:1018E0001D68002DFAD01A605A60ECE74FF0FF3007
:1018F00070BD4FF0FF307047F0B1E9B138B500234B
:101900000B6043699A68A2B15868D0E9014504B1F7
:10191000A56005B16C601D685C6045B13CB10468B0
:10192000013A9A600C6004F059F9002038BD1C603F
:10193000F5E74FF0FF3038BD4FF0FF30704700BF84
:1019400000283DD0F8B50F4606461821012015465F
:1019500004F0AAF8044600282FD01C21012004F02E
:10196000A3F8034630B3184A3460002D08BF15466B
:10197000012F6061C5601BD0032F0CD1134A144D99
:10198000144815492260154AC4E90150C4E90312FC
:1019900000205B61F8BD124A124D0F480D492260CC
:1019A000114AC4E90150C4E9031200205B61F8BD8B
:1019B0000B4AE4E7204604F011F94FF0FF30F8BD80
:1019C0004FF0FF30704700BFF1170000451B0000CB
:1019D0009D1800001D18000039180000F5170000C0
:1019E00055180000F918000009180000A0B143695B
:1019F0001B698BB910B5044682B001A92046FFF7D8
:101A00004DFF0028F9D0606904F0E8F8204604F0A2
:101A1000E5F8002002B010BD4FF0FF30704700BF66
:101A200030B370B544690D4601200C21266804F0DE
:101A30003BF8D0B100230560C0E9013606B1706003
:101A4000D4E9002390420CD0206023B10020A36889
:101A50000133A36070BDA368606001330020A36000
:101A6000F8E7002BF2D12360F0E74FF0FF3070BDB4
:101A70004FF0FF30704700BFE8B1E1B1F8B5002387
:101A80000B604569A5B16B6916461C682A680F464C
:101A9000AA611CB90CE0A46854B16B69DB683146DB
:101AA000206898470028F6D12368AC613B60F8BDF8
:101AB0004FF0FF30F8BD4FF0FF30704700283DD0A9
:101AC0002DE9F041D0E9005486B00F460595DAB112
:101AD0006B68A34227D00C210120D4F8088003F0C2
:101AE000E3FF40B34460264644460760C0F80880E0
:101AF000B060C0E9016404B160600020AB680133EC
:101B0000AB6006B0BDE8F0812B68A3420FD00C217A
:101B10000120666803F0C8FF68B1C0E90076846000
:101B2000002EE6D0E4E76846FFF794FEE9E7684652
:101B3000FFF776FFE5E74FF0FF30E2E74FF0FF30C9
:101B4000704700BF00B370B545690E462C6814B9E4
:101B500010E0A46874B1EB6831462068984700280B
:101B6000F7DDAC61314605F114000022BDE870409C
:101B7000FFF7A4BF6B683146AB6105F11400012289
:101B8000BDE87040FFF79ABF4FF0FF30704700BFCD
:101B90002DE9F0410C46054600201146E36AAA688B
:101BA00018731B690129EE68E36293883AD023F029
:101BB000200395F82D001B041B0C9380B0B11EB1BF
:101BC00094F83430022B1DD0236B1B691B68002B4B
:101BD0003DD004F13C0001F0F7FCE16A0B7B002BE7
:101BE0003ED0A36B2846BDE8F0411847938823F008
:101BF00001031B041B0C9380002EE5D094F83430B5
:101C0000022BE1D10027236BAA691869D3F800C021
:101C1000AF611F6003682063FBB12869D2B1042162
:101C2000B047D6E723F012031B041B0C93801EB1B0
:101C300094F83430022BE5D0938A5B06FCD5138FE1
:101C40009BB2002BC0D0938A5B06F5D5F7E784F8EA
:101C50003430BEE76246B047BBE784F83430DCE797
:101C6000BDE8F08138B50B46416A012BCA6A0446CB
:101C700010691CD0022B0CBF4FF480654FF48055C7
:101C800003680BB1437B43B9A36920462B43A3618F
:101C90000022BDE83840FFF77BBF0022A3692B4339
:101CA000A36102732046FFF773FF616AECE74FF40C
:101CB0008075E5E738B50B46016A012BCA6A044610
:101CC00012691DD0022B0CBF4FF400654FF4005574
:101CD00013680BB1537B43B9A36920462B43A3611F
:101CE0000122BDE83840FFF753BF0020A3692B4312
:101CF000A361107301222046FFF74AFF216AEBE738
:101D00004FF40075E4E700BF436A70B5DC6A05462E
:101D100026684EB3237BBBB1D4E901034A1ED2B27D
:101D200069B90EE0A968013A0988D2B2C9B2F15482
:101D3000A368FF2A03F10103A360606801D0834216
:101D4000F0D3834214D070BDC368002BFBD00022B7
:101D50000221286998472368002BF4D1237B002BAC
:101D6000F1D1AB681B8870BDC368002BEFD1F5E7DC
:101D7000696A2846BDE870400022FFF709BF00BF2E
:101D80004A7B836822B99A8842F002029A8070479F
:101D900001224068F0B400780D4C0E4D8240C4F82A
:101DA00014282F68A2620C4D62626263D1E900645C
:101DB0000201611E0E44BC1845EA0111BE50636069
:101DC000A1609A88F0BC42F010029A80704700BF70
:101DD0000000014048DD0000010000C04A7B83682C
:101DE00022B99A8842F001029A8070470122406825
:101DF000F0B440780D4C0E4D8240C4F81C282F687A
:101E0000A2620C4D62626263D1E900640201611E4C
:101E10000E44BC1845EA0111BB506660A1609A8867
:101E2000F0BC42F020029A80704700BF00000140E1
:101E300048DD00000100000C70B5164600220C467B
:101E400005463C31104601F063FB40B9226B136933
:101E500010601A68236352B1A86910B970BD0120DF
:101E600070BD0023AA690D203260AB6170BDA86906
:101E700084F834200028F1D0F3E700BF10B4D0E993
:101E80000131002493F903208C80A2420DDB012351
:101E900002F01F0419495209A340203241F82230B0
:101EA000BFF34F8FBFF36F8F436893F90220002A6F
:101EB0000DDB012302F01F0410495209A340203218
:101EC00041F82230BFF34F8FBFF36F8F436893F910
:101ED0000420002A0DDB012302F01F0407495209E8
:101EE000A340203241F82230BFF34F8FBFF36F8FF2
:101EF00043680020D86010BC704700BF00E100E0DC
:101F00002DE9F84F144606464FF0000A8B46154659
:101F1000DDF82880DFF86C911A4651462046C8F853
:101F200000A0370104F080F909EB07039A68C4E9BF
:101F3000013205F830BB00F0F3FEBBF1010F04F1F4
:101F400044036FD10022606847496562407885F894
:101F50003420EA63A963AD62C5E90B552B616D625C
:101F60002246424900F004FF002876D10421404B6C
:101F7000C6EBC60676009A19985BA36855889881C7
:101F800090881D859884D588108952899D851884EC
:101F90009A879980198C1B8C364AC3F38113D25CC3
:101FA000636884F82E2093F904204F4401F0010166
:101FB000002A84F82D10C8F80040FC600EDB0121D7
:101FC00053099B0003F1604302F01F0203F56143D4
:101FD00001FA02F2C3F880211A60636893F90220C3
:101FE000002A11DA93F90330002B0ADB012203F0F7
:101FF0001F0021495B09824041F823200020BDE8F1
:10200000F88F0020BDE8F88F012302F01F001A4965
:102010005209834041F82230636893F90330002B62
:10202000E4DAEEE715496268A1661078256284F863
:1020300064A0A565C4E91755C4F86CA02364656560
:1020400022460F4900F094FE38B9BBF1000F8DD045
:1020500004F1700504F1840374E72046FFF70EFFD6
:102060000F20BDE8F88F00BFDD1D0000651C0000DB
:1020700000DD000010DD000000E100E0811D000037
:10208000B51C000060080420F8B54FF0000C0127D3
:10209000056AAC6A95F8346063732369C4E9001279
:1020A000C4F808C02773AB622EB90222AB6B85F867
:1020B0003420E96A98470020F8BD00BFF8B54FF01A
:1020C000000C0127456AAC6A95F834606373236994
:1020D000C4E90012C4F808C02773AB622EB902220B
:1020E000AB6B85F83420E96A98470020F8BD00BF43
:1020F000F8B501274FF0000C0646056AAC6A85F872
:10210000347021602169626027736373C4F808C06A
:10211000069CA962AB6BE96A98472246316A304651
:10212000BDE8F840FFF788BEF8B501274FF0000C76
:102130000646456AAC6A85F83470216021696260A0
:1021400027736373C4F808C0069CA962AB6BE96A85
:1021500098472246716A3046BDE8F840FFF76CBEEA
:1021600003460020C3E90312704700BF10B484681F
:102170000A43A089134320F00F000004000C184309
:10218000A081002010BC70476FEA43436FEA5343BD
:1021900010B49DF8044043EAC2238268A4B29BB203
:1021A000118500209384948510BC7047794BF0B55D
:1021B000DD6883B0AB681C8904F00E040C2C1DD8BC
:1021C000DFE804F0251C3C1C511C581C1C1C1C1C6A
:1021D0001E0002F0040102F00203120759D4002984
:1021E00040F08D8053B140212B7D3BB9AB69042277
:1021F0001943A9612846696AFFF7CAFC03B0F0BD1C
:10220000998E2846C9B2FFF77FFD03B0F0BDB3F841
:102210004460B3F84020B6B2370792B202D012F051
:10222000010742D10021B3F8402022F00702120436
:10223000120CA3F84020297503B0F0BD296ACA6AC0
:1022400010680028DAD0147B002CD7D0D2E90174B2
:10225000065D601CB8421E809060CFD328460122E4
:10226000FFF796FCCAE795F82E102846FFF74CFDBD
:1022700003B0F0BD9A8A92B2D406AAD550071B8843
:1022800002F002030CD5A021002BADD041F040019B
:10229000AAE7002935D1002B14BF50211021A3E754
:1022A000002B14BFC02180219EE701A9002001F06E
:1022B00069F808B100230193A96816F0010CB1F880
:1022C0004820B1F844301FFA82FE9AB20B461AD069
:1022D000130901988A8C43EA0E33C0001604B0FB40
:1022E000F3F02ED4A862EB684BB395F82C2032B3F0
:1022F000AA6A032128699847AB681A8892E72021C7
:10230000C2E73021C0E716F0020F14BF4FF400728D
:102310000022EC68700748BF42F48072310748BF62
:1023200042F480624CB1696A91F83410022904D1F8
:1023300005212869A047AB68DFE7EA61DDE70B46C6
:10234000DBE73F2B0BD85B02DB08A3F5006343F40C
:1023500008439BB20F858B848C85A862C3E77F2BD3
:1023600005D81B02DB08A3F500636446EFE7FF2BEB
:1023700005D8DB01DB08A3F500630224E7E71A0AAE
:1023800094B2E4009B01B3FBF4F397B20324A3F5EA
:102390000063DCE760080420024B0122D868016A70
:1023A000FFF7F6BB60080420024B0022D868416AA0
:1023B000FFF7EEBB600804204C4B2DE9F0411C6890
:1023C00063689A8C12F0FF0F08D02268910600F122
:1023D0008980636902212046984763689A8C12F4C9
:1023E0007F4F2AD09A8C120469D49A8C57040DD549
:1023F0004FF480412268E56842F48072226099843B
:1024000025B10022A0681146A84763689A8CD605BA
:1024100006D54FF48071226842F4007222609984DC
:102420009A8C950506D54FF40071226842F400524B
:10243000226099849A8C500539D41A8D92B252B187
:102440001D8D2268ADB2910604D463690321204634
:10245000984763681D859A8D92B22AB19E8D226835
:10246000B6B2920602D49E85BDE8F081E268002AE9
:10247000F9D04FF00108002547466B0007FA03F337
:10248000334204D0E3682A460321A068984707FA3C
:1024900008F3334208F1020804D0E3682A46042115
:1024A000A06898470135042DE7D16368DBE74FF456
:1024B0008061226842F4804222609984BDE74FF433
:1024C00000412268E56842F0040222609984002DF0
:1024D0008BD000220121A068A84763689A8C57041A
:1024E00094D585E79A8CD2B29A8477E77008042055
:1024F000744BF0B4D8680168837A8C88A4B20481E4
:102500001BB10023C2890A8383726F4E04F0040357
:1025100035889D4270D104F00802954247D104F0FD
:10252000B003934204F4807503D1AA421FD1F0BCDA
:10253000704704F0100690F82B30B24218BF43F0F9
:10254000010304F0800618BF80F82B30B24204F07B
:10255000200400F0A58043F00203A24280F82B3053
:1025600003D043F0040380F82B30AA421BD00C4662
:102570008B8803F488639A42FAD1436893F9003058
:10258000002B0DDB012203F01F0450495B09A24020
:10259000203341F82320BFF34F8FBFF36F8F0468C0
:1025A0004B4B1B8823802C30F0BC01F00DB8B1F8E8
:1025B0004C30C3F38113002B00F082804FF4807500
:1025C000446A0A89013BD2B222700168446A8A8A4D
:1025D000013492B29BB244624AB9078DB7F5807F4D
:1025E0004FD90D82028DA2F5807292B20285002B26
:1025F000E7D13288048992E7B1F84C30028BC3F3FB
:102600000113C3F1020392B29BB29AB1002B42D0E4
:10261000476901E0002B3ED017F8012B013B8A816E
:10262000028B9BB2013A92B20283028B476192B253
:10263000002AEFD1028B92B2DAB9028D92B2002A4F
:102640002BD1028C92B2A2B19BB1013B9BB2C76964
:1026500001333B4401E0BB420BD017F8012B8A81C8
:10266000028CC761013A92B20284028C92B2002AB3
:10267000F1D1038C9BB2002B7FF44DAF04238B80F0
:1026800049E7078DBFB2002FB1D0078D013FBFB220
:102690000F820285ABE70023CCE7C3890B83E8E711
:1026A000A2427FF45EAF002B7FF45FAF0823954218
:1026B00080F82B307FF45BAFF0BC2C3000F084BF8F
:1026C0002A462CE7840804204C18042000E100E08E
:1026D000780804202DE9F047006803891D06FCD422
:1026E000838D13F48053FBD1DFF8DC80DFF8DCE06E
:1026F000DFF8DCC0324FA8F80030AEF80030ACF89C
:1027000000303B80002956D04FF001092D4ECC07F8
:102710000DD5DCB256F8345006EBC40ABAF80440C2
:10272000B5F800A009FA04F444EA0A042C80490828
:1027300003F10103EBD1B8F80040BEF80030BCF85B
:1027400000503988EAB1028814430480028D134393
:102750000385B0F850302B43A0F85030B0F8543017
:102760009BB2A0F85430B0F84C301943A0F84C108C
:1027700083881A06FCD5838D5B04FCD50020BDE858
:10278000F087028822EA04040480028D22EA03030F
:102790000385B0F8503023EA0503A0F85030B0F8B4
:1027A00054309BB2A0F85430B0F84C3023EA010109
:1027B000A0F84C10DCE70D460B460C46C2E700BF04
:1027C00052180420940804204E18042050180420A5
:1027D00054180420564B2DE9F0419C682368188852
:1027E0009A8892B212F07E0543D0524980B20140DD
:1027F0007CD1188D9A8D80B292B212F00F0701D061
:10280000C6065AD140F21D36B3F85000B3F848203E
:1028100080B292B21640D4F8048027D041F6FE7CF4
:1028200010EA0C0F05D0800503D5900501D541F4C1
:102830000061B3F85000DFF800C180B210EA0C0F5D
:1028400019D1B8F1000F04D019B10022A068C04717
:1028500023689A8815439D809A8D17439F85B3F806
:1028600048201643A3F84860BDE8F081B3F8502033
:10287000E7E72946BDE710F4804F04D012F0100FAF
:1028800018BF41F4802110F4005F04D012F0080F4B
:1028900018BF41F4003110F4805F04D012F0040F2F
:1028A00018BF41F480314005CBD5D207C9D5B8F166
:1028B000000FCED041F40041C7E7060703D5160745
:1028C00048BF41F40071460703D5560748BF41F49D
:1028D0008071860703D5960748BF41F08001C00785
:1028E00090D5D60748BF41F040018BE710F00401B6
:1028F00018BFC2F34001C70403D5160748BF41F013
:10290000040107040ED4470403D5960648BF41F0DE
:10291000100180047FF56DAFD7067FF56AAF41F0F7
:10292000080166E7560648BF41F02001EBE700BF0B
:102930002409042004F8FFFF1CF4FFFF594B2DE984
:10294000F0415C69236818889A8892B212F07E057B
:1029500044D0554980B2014040F08380188D9A8D53
:1029600080B292B212F01F0701D0C6065AD140F2CF
:102970001D36B3F85000B3F8482080B292B216402A
:10298000D4F8048027D041F6FE7C10EA0C0F05D065
:10299000800503D5900501D541F40061B3F84C00E2
:1029A000DFF808C180B210EA0C0F19D1B8F1000F9E
:1029B00004D019B10022A068C04723689A88154343
:1029C0009D809A8D17439F85B3F848201643A3F83E
:1029D0004860BDE8F081B3F84C20E7E72946BDE741
:1029E00010F4804F04D012F0100F18BF41F4802172
:1029F00010F4005F04D012F0080F18BF41F400314A
:102A000010F4805F04D012F0040F18BF41F480313D
:102A10004005CBD5D207C9D5B8F1000FCED041F4CF
:102A20000041C7E7C60603D5D60648BF41F480611A
:102A3000060703D5160748BF41F40071460703D5C2
:102A4000560748BF41F48071860703D5960748BFF3
:102A500041F08001C0078AD5D60748BF41F0400148
:102A600085E710F0040118BFC2F34001C70403D585
:102A7000160748BF41F0040107040ED4470403D5EC
:102A8000960648BF41F0100180047FF567AFD70676
:102A90007FF564AF41F0080160E7560648BF41F09A
:102AA0002001EBE72409042004F8FFFF1CF4FFFFDA
:102AB000F8B50F4B0F4F53F8206057F82030B58B07
:102AC0009BB1ADB2EA07044605D50B49002251F887
:102AD000200001219847AB0707D5074A57F8243053
:102AE00052F824000221002298470323B381F8BD45
:102AF00038DD0000581804206418042070B41E4DFE
:102B00001E4C45F820101E4944F820200A561BB3DD
:102B1000002A07DB012302F01F041A495209A340CF
:102B200041F82230184B194E194D1A4C1A491B4ABC
:102B300053F8203036F8106035F8105034F8104053
:102B400031F8101032F810201E8100201D809C8268
:102B5000198470BC9A847047002AE3DB012302F0D9
:102B60001F0408495209A340203241F82230BFF324
:102B70004F8FBFF36F8FD5E75818042064180420D7
:102B800034DD000000E100E038DD000014DD00006D
:102B90001CDD00001CDD000024DD00002CDD000039
:102BA000184A30B452F820008C88CA884FF47A73DF
:102BB0000480828200E013B3828B013B12F0400F4D
:102BC0009BB2F8D10389CD788A784C7803F4C0435E
:102BD00042EA451213430CB143F008030A780AB1E4
:102BE00043F004030A7A0AB143F080034A7A1AB91F
:102BF00030BC03810020704743F40043F8E706200F
:102C000030BC704738DD0000104A10B44FF47A73BE
:102C100052F8204000E0B3B1A28B013B12F0400219
:102C20009BB2F8D1238923F010031B041B0C2381D2
:102C300031B12389104643F01003238110BC704743
:102C4000084610BC7047062010BC704738DD0000F5
:102C5000034B53F8203000209B880B80704700BF47
:102C600038DD00000020FFF723BF00BF0120FFF781
:102C70001FBF00BF0220FFF71BBF00BF2DE9F041BF
:102C8000254ED6E90050037843B32B88AF8803F470
:102C90007C44274017F4084F22D1FA0423B217D5F9
:102CA0007268117C507C884212D9147C117CD068E7
:102CB0000131C9B230F814401174167C117C30F81F
:102CC0001600013164BA40BAC9B211742C81A881CE
:102CD000AA8813439BB2AB80BDE8F0810F4BF7E7A6
:102CE00010F8143B00F070FC72681378D2F804807E
:102CF00003F0F30313702B8823F480731B041B0C65
:102D00002B80B8F1000FC8D0906839460022C04728
:102D1000FA0423B2DCD5C3E77018042000FCFFFFDF
:102D2000EFF3108172B60E4A1378ABB901200D4B48
:102D300010705A680C4842F001025A6098604FF4D3
:102D400000200A4A10606FF078421A62DA625A6311
:102D5000DA639A64DA641A6581F31088704700BFF9
:102D60007818042000000140001C042000E100E06D
:102D7000012310B40A4C834004EBC000C0E90112E7
:102D8000D4F8DC2029B11343C4F8DC30002010BC97
:102D9000704722EA0303C4F8DC30002010BC7047FF
:102DA00078180420184B2DE9F047DFF86090D3F82D
:102DB0004C809D6C1F6DD9F8DC3045EA07041C403F
:102DC0001AD0B4FA84F30126C3F11F0309EBC3023E
:102DD000D2F804A006FA03F324EA0304BAF1000FC0
:102DE00006D01D42906814BF012102210022D04765
:102DF000B4FA84F3202BE7D1034B9D641F65C3F81D
:102E00004C80BDE8F08700BF000001407818042026
:102E1000F0B40468D4E90023C3F304130133082B8E
:102E200030D9112B34BF022504250B68B3FBF5F311
:102E30000B60EFF3108572B6002702260368176057
:102E4000086893F91B101061B9421E760DDB012052
:102E50004B09B34003F1604301F01F0103F56143E7
:102E600000FA01F1C3F8801119606368916843F0BA
:102E7000010341F01F019160136085F31088002069
:102E8000F0BC70470125D0E72DE9F04F012403681D
:102E90005D685E7EC5F304152544082D04FA06F42A
:102EA0001F6840F28780102D94BF4FEA520E4FEA00
:102EB000920E4FF0000B0125DFF82C81D3F8109013
:102EC000DFF828C190F804A0D8F80080C7F800B057
:102ED0001144CCF8144805FA09FBCCF82840360117
:102EE000CCF82440CCF83440CCF838405D69B2FBD3
:102EF000FBFC08EB0604A1EB0B0BBAF1000F48D169
:102F0000AD0745F0406507F1280248F80620C4F8EF
:102F100004B0A560A2680CF1FF3C42EA096242F0ED
:102F2000010242EA0C12A260EFF3108572B602248D
:102F300093F91B200168002A0C76C7F810E009DB22
:102F4000012402F01F0C5109264E04FA0CF46031E2
:102F500046F8214093F91A400679002C2CDA002E0D
:102F60000CBF16201720002A07DB012102F01F06E4
:102F70001C4C5209B14044F822105B68B86043F021
:102F8000806343F001033B6085F310880020BDE8B7
:102F9000F08FAD0645F04042F44507F1200548F8B2
:102FA00006B038BF0CF1010C6560A26038BF48F86C
:102FB0000610AFE796467CE701206109890001F120
:102FC000604104F01F0401F5614100FA04F4C1F806
:102FD00080410EB11720C6E70C60162093F91B2024
:102FE000C1E700BF00E100E048DD00000000014053
:102FF000F8B5044600202268E66B15682B6823F0BC
:1030000001032B60A96892F91B3021F0090183426A
:10301000A960286130730CDB012103F01F072648EB
:103020005B09B940203340F82310BFF34F8FBFF343
:103030006F8F92F91A30002B0CDB012203F01F0076
:103040001D495B098240203341F82320BFF34F8F95
:10305000BFF36F8F04212268A36811763BB32179F7
:10306000326800290CBF20214021E06898470023E6
:103070003360172300223169EB600B68E16384F849
:10308000442073B10B7B63B102224B7B84F8442054
:1030900043B106C92046FFF7F7FE10B1002384F8BC
:1030A0004430F8BD04312046FFF7B2FEF5E704F1E5
:1030B000480000F089FADCE700E100E0F8B50368B9
:1030C00005461C68E16801F0080611F0160105D0FC
:1030D0008368002B4AD00022C068984706B3EA6B89
:1030E0001168E9B1D2E90163B34219D295F804C07D
:1030F0005F1C01EB8300BCF1000F1AD1A06A97603E
:1031000041F82300E36813F4407F09D09368A06A74
:103110005E1C966041F82300E36813F4407FF5D10C
:10312000E368DB0700D4F8BD2846BDE8F840FFF7A8
:103130005FBF976051F82310BE422162F0D9E16869
:1031400001F44071B1F5407FEAD0023305E0E16857
:1031500001F44071B1F5407FE2D0936050F8041F54
:103160009E42216203F10103F1D1D9E7C36C4830DB
:103170001943E96400F028FAB0E700BF014BD869B1
:10318000FFF79CBF3C090420014BD86BFFF796BFAB
:103190003C090420014BD869FFF72ABF3C090420F1
:1031A000014BD86BFFF724BF3C09042038B52E4BE8
:1031B0002E4ADC6823681968616161691960616978
:1031C0000A40A261A26902BB6269100737D5A26AF0
:1031D000002A38D11A68D107FCD400225968244843
:1031E00021F0070159601862196BA56821F00301ED
:1031F00019631A62627715B11146E068A84704F1B5
:103200002C00BDE8384000F0DFB900215A681848AA
:1032100022F007025A6018621A6BA56822F00302B6
:103220001A6319626177002DE9D0E068A269012173
:10323000A84704F12C00BDE8384000F0C5B9626928
:103240005207CAD438BD0420D4E90812D9601568E1
:10325000083121621D61516808325961A16A6262B8
:103260000839A162986038BD7C090420F0AF0138AC
:1032700065756C67002238B51C4B1D49DC681D481C
:1032800023681D68656165691D6065692940A161E4
:103290001862196BA56821F0030119631A62A26212
:1032A000627745B1A36963B9237F03F0FF0243B995
:1032B0001146E068A84704F12C00BDE8384000F052
:1032C00083B9A3694BB9E068A2690121A84704F159
:1032D0002C00BDE8384000F077B9237F03F0FF02EF
:1032E000002BE8D1217FE068A847E4E77C090420AF
:1032F000F0AF013865756C67F8B54CF614310225EE
:1033000000241A4B1A481A46D9601D610460D9601E
:1033100019692943196113699B05FCD5002446F6F8
:103320001A061F254CF61430124B134F196821F062
:103330000301196011491C605F60DE605D610C6013
:103340008C604C64D060136923F004031361402245
:103350000B4B1A6080221A604FF400725A604FF4CF
:1033600000625A6001F0ACF92046F8BD00C104408B
:103370000820042000C304400404100000C00440DE
:1033800000E100E038B504460D4601F099F97CB142
:10339000012C0BD1094B5B6803F03F03084A12680C
:1033A0000BB1B2FBF3F22A60002038BD042038BD17
:1033B000024B5B68C3F30523F0E700BF00C3044082
:1033C00018200420012810B519D014D3022810D1D8
:1033D0006FF47F040904EFF3108072B6094A536852
:1033E00023401943516080F3108801F069F90020EF
:1033F00010BD042010BD09026FF47C54EBE76FF0A0
:103400003F04E8E700C3044038B50D4A0D4B14688B
:103410009B6903F006053CB113F0040207D00A4B88
:10342000002218680821A047064B9D6138BD9B0704
:10343000FAD5054B07211868A047024B9D6138BD9E
:103440000820042000C304400420042038B5104A9A
:10345000104B15689B6903F4CC4455B144B1580432
:103460000AD504210C4B00221868A847094B9C611F
:1034700038BD002CFAD138BD990405D49A0505D47D
:103480005B05F3D50621EDE70321EBE70521E9E72D
:103490000820042000C304400420042008B5084B81
:1034A0005968CB070BD5074B1B681BB1064A106840
:1034B00000229847024A536843F00103536008BD55
:1034C00000C00440082004200420042038B50D4D1D
:1034D0000D4A2B68546873B1620704D500220B486B
:1034E000114600689847A30705D5084A2B6810685D
:1034F000012100229847044B04F006045A68144343
:103500005C6038BD0820042000C004400420042072
:10351000294B0029F0B406BF1946022600260328CD
:1035200048D8DFE800F0443C3F024FF0FF3C06265D
:10353000EFF3108372B644F65904204D204FEC602F
:10354000AC6824F003040443AC603869304300EAFB
:103550000C003861EFF311841A485201008980B2DF
:1035600082F311880A6852B9BFF34F8F30BF83F3DB
:103570001088EFF3108372B60A68002AF4D00A6844
:10358000013A0A6084F311880E4A0D4910810A69D4
:1035900022F002020A61BFF34F8F83F310880020EC
:1035A000F0BC704746F004064FF0FF3CC0E76FF0F8
:1035B000060CBDE70620F3E70020042000C004400D
:1035C00000ED00E0002C0040034660B9EFF31081ED
:1035D00072B6074A136923F002031361BFF34F8FDA
:1035E00081F31088034B1A68002001321A6070477B
:1035F00000ED00E00020042038B5064C23680BB134
:10360000002038BD05460A46194602F00DFE256029
:10361000002038BD0C2004200F2330B405284FEAC9
:10362000800403FA04F21CD041F008010130A140EB
:1036300040B2EFF3108572B60C4C236823EA020304
:103640001943216085F31088002807DB012300F06F
:103650001F01074A40098B4042F82030002030BC4F
:103660007047490541F480110420E2E780C004401E
:1036700000E100E00121054B054A116119680B6862
:103680001BB1002248681146184770470C200420DF
:1036900080C004400221054A054B11611A689368F5
:1036A0001BB1D068012100221847704780C0044038
:1036B0000C2004200421054A054B11611A68136986
:1036C0001BB15069022100221847704780C0044096
:1036D0000C2004200E4B0F495A6810B412F020023F
:1036E000096809D020228C6A1A6174B1C86A23461D
:1036F0000022052110BC184708208C69186124B1EC
:10370000C8692346032110BC184710BC704700BF8E
:1037100080C004400C2004202DE9F0410F46002415
:10372000104E82B0F56805EBC00556F82420092F2D
:103730000CBF138D938D118ED5F800809BB20B407A
:10374000ADF806301386B8F1000F05D023B10DF1A6
:10375000060221466868C0470134032CE5D102B057
:10376000BDE8F0818C09042009210020FFF7D4BFB7
:103770000A210120FFF7D0BF012903690ED00229D9
:1037800008D043F04003036183685BB10169002204
:10379000C068184743F010030361F5E743F00403E2
:1037A0000361F1E72830FFF70FBF00BF0129104682
:1037B00013690ED0022908D043F080031361836897
:1037C0005BB101690022C068184743F02003136110
:1037D000F5E743F008031361F1E72830FFF7F4BE83
:1037E0000368F0B51D88ADB21D8015F0900F1A8CDE
:1037F00033D0EA0603D5026942F0010202612F06C6
:1038000003D5026942F002020261C26952B9012283
:10381000198A8E0706D5AC0704D41988890701D404
:10382000002A66D001249A8A416822F4185291F93C
:103830000C101204120C00299A8280F8224049DAF6
:103840001A88846892B21A80002C57D001692346E6
:10385000BDE8F0400022C068184792B202F00F069F
:10386000C6F10806B6B21C46C2F30322AEB1838B82
:10387000B3B190F820C041699E1BB6B26144CCF14F
:10388000000E01E061445BB1013B11F80E709BB288
:10389000B342278183834161F4D190F824304BBB3C
:1038A000A2B1C38B93B1816901E07BB10468A388A5
:1038B000013A0B70C38B816990F82140013B9BB2A8
:1038C000214492B2C3838161002AEED1C26982B9D8
:1038D00003689DE74B090C4A01F01F01203304FAED
:1038E00001F142F82310BFF34F8FBFF36F8F0368CE
:1038F000A6E7F0BD838B002BE8D1D1E72830BDE8E7
:10390000F040FFF761BE00BF00E100E0F8B50C46F3
:10391000054600271E460021204602F085FCAA002D
:103920001349531901EB8301124B61601A4433F8B8
:10393000250053888A680C612260A76210829381F7
:10394000118A346041F001031382FFF7E9F96368DB
:10395000224698780849FFF70BFA38B9636822467F
:1039600098790649FFF704FA00B9F8BD0E20F8BDB2
:103970009C0904204CDD0000AD37000079370000C1
:103980000268138A31B923F400631B041B0C1382F1
:103990000020704743F4006313820020704700BF8B
:1039A00010B4EFF3108472B6026889B91183138AD8
:1039B00023F002031B041B0C1382138A43F42073AD
:1039C00043F00103138284F31088002010BC704779
:1039D000138A43F00203138284F31088002010BC82
:1039E000704700BF30B583B005460C46002001A9E2
:1039F000FFF7C8FC90B90199B1EB440F0BD3B1FBB1
:103A0000F4F14908013989B231F03F0309D12B683B
:103A1000998103B030BD0C2003B030BD032003B04A
:103A200030BD072003B030BD30B5036883B09B893B
:103A30000D46002001A99CB2FFF7A4FC38B9019AF9
:103A4000631CB2FBF3F35B082B6003B030BD0023B3
:103A500001202B6003B030BD0268138A31B923F016
:103A600008031B041B0C13820020704743F008035B
:103A700013820020704700BF80F826100020704796
:103A80000268138A31B923F004031B041B0C138250
:103A90000020704743F0040313820020704700BFEA
:103AA0002DE9F041D1E9002300260C894D89C0E9B8
:103AB00005238483C5830A7B036880F820204A7B22
:103AC00090F826E080F821208F7B91F80FC080F8D5
:103AD00022601A8A82B022F441521204120C80F839
:103AE000237080F824C006611A82002F59D09A8A68
:103AF000002D40F0D48042F400529A821A8892B28B
:103B0000ADF80420BDF8042092B21A801A8A42F05F
:103B100002021A82A3F830E01A8A42F440521A8252
:103B20001A8A22F440521204120C1A829A8B22F042
:103B300007021204120C9A83002C40F0FD8001262B
:103B400045684A89002A5BD0AC88B5F806C067B2E0
:103B5000002F80F2238101249C4F04FA0CF4C7F853
:103B60001C48BC627C627C63D40748BF01324F684A
:103B700048BF92B2964C4FEA5208023A2468174462
:103B8000944A4FEA0C1C08F1FF3803F1040E44F884
:103B90000CE042EA08126444676046F00406A26042
:103BA0002EE0002C0CBF4FF400524FF408529C8AB8
:103BB000002D6FD122439A821A8A42F040021A8263
:103BC0001A8892B2ADF80420BDF8042092B21A808F
:103BD0001A8A42F002021A82A3F830E000261A8AFA
:103BE000456842F440521A821A8A22F44052120462
:103BF000120C1A829A8B22F007021204120C9A837A
:103C0000002290F82440B0F81EC09A84828B002CC9
:103C100079D09F8C541E27F0F0073F043F0C9F84FF
:103C20009F8C47EA840444F00104A4B29C841C8A5B
:103C300044F400641C82A3F818C090F82340002CC0
:103C40004AD1416971B1A2F10807BFB2541E4AB10D
:103C50000E78A2B21E8190F82040BA42214482839D
:103C60004161F3D11A8A520658BF9B8895F90C30EE
:103C7000002B07DB012203F01F0457495B09A24018
:103C800041F8232090F82530002B49D1002002B0C4
:103C9000BDE8F08144F4806422439A8290E722F4E4
:103CA00000521204120C9A821A8892B2ADF80420C3
:103CB000BDF8042092B21A801A8A42F002021A82D7
:103CC000A3F830E0BCF1000F3FF426AF012D7FF4E4
:103CD00023AF80F8236081E79A8B098916439E837E
:103CE0000029BFD0642201E0002ABBD0198C013A20
:103CF00089B2ADF80610BDF8061092B201F00F01BE
:103D00000829F1D0AEE7BCF1000F40D11C8A44F481
:103D100080541C82944538BF9446A3F818C08CE7A1
:103D2000002200F128011046FFF7F2FB0028ADD079
:103D30000D2002B0BDE8F08145682E88B5F802C0BC
:103D400072B2002A36DA0122204E02FA0CF2C6F8CC
:103D50001428B26272627263E60744BF0134A4B2EF
:103D60001B4A0F68A4F102086408126804F1FF3EC0
:103D70001A4C4FEA0C1C474442F80C7044EA0E14EB
:103D8000624403F10807576003269460D9E6002ACD
:103D9000C0D11C8A44F400541C82BBE701230E4DA1
:103DA00004F01F047F0903FA04F445F82740D0E922
:103DB0000035D0E60123084D06F01F06520903FA2C
:103DC00006F645F82260D0E90035BCE70000014066
:103DD00048DD00000100004D00E100E0010000C5E9
:103DE000012310B580F825300446FFF759FE002363
:103DF00084F8253018B92369002B18BF0F2010BD97
:103E00002DE9F04300260368D1F800C01A8A4F68F4
:103E100042F440521A821C8A0A8924F44054240431
:103E2000240C1C829C8B4D8924F007042404240C50
:103E30009C83C0E905C780F822608283C5830C7B20
:103E400083B080F820404C7B80F821401C8A8F7B17
:103E500024F4615491F80FC02404240C80F82370DA
:103E600080F824C006611C821AB91C8A44F40054EC
:103E70001C82002D31D11C8A44F480541C82002FF6
:103E800000F0A0801A83002A31D1998A466821F473
:103E900000510904090C9982998B42F001020A43EE
:103EA0009A831A8A520603D49B889BB2ADF80630D7
:103EB00096F90C30002B07DB012203F01F04724936
:103EC0005B09A24041F8232090F82530002B40F0F8
:103ED000AC80002003B0BDE8F083AA42144638BF8E
:103EE0002C461C83002F72D0002A00F0C780466841
:103EF0003588B6F802906CB2002C80F2AF800124B5
:103F0000624D04FA09F4C5F81448AC626C626C6343
:103F1000D50748BF0132DFF880C10D6848BF92B2B3
:103F2000DCF800804FEA520E594F023A2A444FEA19
:103F300009144D890EF1FF3E48F8042047EA0E1798
:103F400003F1080208EB040ECEF80420CEF8087046
:103F50000622002D00F08E80B788B6F806807CB26D
:103F6000002C6FDA0124494F04FA08F4C7F81C4802
:103F7000BC627C627C63EC0744BF0135ADB24F6824
:103F8000DCF800C04FEA550E424C4FEA08110EF122
:103F9000FF3E023D3D4444EA0E141F1D0CEB010E92
:103FA0004CF8017090F82370CEF80450CEF8084019
:103FB000998A21F400510904090C9982002F7FF499
:103FC0006BAF0BE0198A41F0400119821A839A8A7B
:103FD000466822F400521204120C9A82198A828BCB
:103FE00021F400610904C48B090C002A19820CBF5A
:103FF00000214FF40071ACB99C8AA2F1080521435D
:104000009982ADB2541E002A3FF44BAF4169A2B26F
:104010000C78AA421C8190F820408283214441619F
:10402000F0D13EE741F48061E6E7002200F128018B
:104030001046FFF76DFA00283FF44BAF092003B09C
:10404000BDE8F0830123104E07F01F07640903FA4F
:1040500007F746F82470D0E9003683E701230A4EBB
:1040600005F01F05640903FA05F546F82450D0E968
:10407000003644E790F82370022299E7042246684C
:10408000DFF814C068E700BF00E100E00000014075
:10409000010000C50100004D48DD0000012310B5FE
:1040A00080F825300446FFF7ABFE002384F8253066
:1040B00018B92369002B18BF0F2010BD014B1869D8
:1040C000FFF78EBB9C090420014B586AFFF788BBA1
:1040D0009C090420014B986BFFF782BB9C090420CC
:1040E0000022024B1B699A83704700BF9C09042081
:1040F0000021074B1B691A68D983938B23F00703B0
:104100001B041B0C9383938A43F4005393827047E0
:104110009C0904200022024B5B6A9A83704700BF0F
:104120009C0904200021074B5B6A1A68D983938B92
:1041300023F007031B041B0C9383938A43F400535F
:10414000938270479C0904200022024B9B6B9A8348
:10415000704700BF9C0904200021074B9B6B1A6825
:10416000D983938B23F007031B041B0C9383938A3F
:1041700043F40053938270479C09042070B5144E99
:1041800073687BB15B686BB1EFF3108372B6326812
:104190001489A4B283F3108814F003040CD1032211
:1041A00033681A8170BD00219CB273680022D3E984
:1041B0000150A847002CF2D014F0010F24F00103A5
:1041C000F1D1A307EBD524F002040121A4B2ECE75E
:1041D000D80904202DE9F04FDFF844814568D8F86C
:1041E0000040012327462C46D0F80890474999F80B
:1041F0000A20D0F820B0934083B001951201C1F895
:104200001438C1F81C388B624B62C56AD0F80CE0D8
:1042100007EB020C04F1140A4B63BBF1000F4FD003
:10422000446A24F003065E44A408043E013CBE50E8
:104230002401CCF804A0002D3DD0354EDFF8E4B0C9
:104240003768866A44EA0B0B25F00304AD08264460
:104250006C1E304D043E45EA0415BC18CCF808B07D
:10426000CB63BE50C4F804A0A560BEF1007F1FD090
:10427000012399F80B10254A8B40C2F81438C2F874
:104280001C38936253625363D0E90C23D8F8004082
:1042900023F0030520489B08019F09012A44013BA4
:1042A00040EA031318376018043A6750426083608D
:1042B00003B0BDE8F08F174B2343CCF80830D4E7A8
:1042C000BEF1007F816A0ED025F003030B44AD08D8
:1042D0001049043B013DBB5041EA0515CCF804A050
:1042E000CCF80850C1E7B5F5805F04D901F6FC7140
:1042F000B9500A4DF2E725F003031944AD08054B08
:104300000839023DB95043EA0515E7E700000140CE
:1043100044DD0000018000CA0180008EF1BF00CAA8
:1043200048DD0000038000CA436AC1F3C21170B4C3
:10433000C1F1040173B159B14568026A00E033B1BB
:1043400052F8044B043B01396C614362F7D10262BD
:1043500070BC7047C368B3F1007F11D00029F7D05B
:10436000C36A002BF4D04568826A00E033B152F88A
:10437000044B043B01396C61C362F7D18262E7E709
:10438000C66A41683F2E456C25D81F2D12D9866A12
:104390002B46324652F8044B203B1F2B4C614364A2
:1043A000F8D8A5F120035B09013306EB8303836290
:1043B00005F01F056B0043F001030B670DB3836A23
:1043C00053F8042B4A6183620022436B4264203B12
:1043D0004363C262BCE7836A03F1400453F8042BD1
:1043E000A3424A61FAD1B5F5007F836234BF00234E
:1043F000A5F50075A6F140062CBF45644364C6626E
:10440000A6E74D61E0E700BF564B70B55C68636896
:104410001A6951071A611ED5E56C1DB10A21206D7C
:10442000A847636800212046BDE870401A6822F062
:104430000C021A60D9601A6842F030021A601A68D9
:1044400022F030021A601A6822F001021A6000F8A5
:10445000581BFFF7B9B8E5681946B5F1007F636BE3
:1044600042D0900713D5C2F3822686B183B1206B68
:1044700000EB860601E0002B72D08B6940F8043B0C
:10448000636BB042A3F104036363F4D12063FBB90F
:104490000123A370E36C9BB1B5F5802F58D04FD9A1
:1044A000B5F5801F4AD0B5F1007F55D0B5F5002F86
:1044B00050D00B21A26C206D984700236168A36443
:1044C000002304F15800CB60BDE87040FFF77CB8D2
:1044D000A378002BDED1B5F1007F28D02046BDE8BF
:1044E00070401146FFF720BF9606D0D5E3B9086D9E
:1044F000236B00BA1860486D00BA5860886D00BA26
:104500009860C86D00BAD860086E00BA1861486E2D
:1045100000BA5861886E00BA9861C86E00BAD86156
:10452000636B002BB4D0D3E7A378002BB2D16378B0
:10453000002BD3D0E36A002BD0D070BD0221B9E7A5
:10454000B5F5803F0AD0B5F5003FB2D10321B1E700
:104550000021AFE70121ADE70621ABE70421A9E780
:10456000206395E7E00904201E4B70B55C68E368A2
:10457000B3F1007F00D070BDE36AB3F5805F17D858
:1045800018469A08013A96005201656CA16A9B1B75
:10459000AA1A3144082B6264E362A16262680DD8F2
:1045A00010F03F0017D10B685361E062606470BD8A
:1045B0004FF480564FF400423046E6E71368204639
:1045C00023F004031360FFF705FE6268136843F0ED
:1045D0000403136070BD2046BDE870401169FFF709
:1045E000A3BE00BFE00904201C4B70B55C68636883
:1045F000E66C1D694EB115F004010FD00A21A26CC2
:10460000206DB04700226368A264012204F15800C3
:10461000A2701D61BDE87040FEF7D6BFE368B3F538
:10462000802FECD00AD9B3F5801F15D0B3F1007FED
:1046300010D0B3F5002F09D00B21E0E7B3F5803F90
:1046400006D0B3F5003FF7D10321D8E70121D6E723
:104650000421D4E70621D2E70221D0E7E0090420B3
:104660004FF4A0004FF4AA220249034B0860002037
:104670001A6070470000024040000240FFF7F0BFA0
:10468000FEE700BFFEE700BF08B50A4A0A4B9342A7
:104690000CD2181D0332121A22F0030207490244F9
:1046A00051F8040B43F8040B9342F9D100F042F89F
:1046B000FBF796FDEC170420000004209CE30000AB
:1046C000174A136803F00303022B0ED0032B05D007
:1046D000144A154B1360154A13607047144B114A66
:1046E0001B681360114A13607047136810B4D368D5
:1046F000D168D4680C48C4F30044A04003F01F0301
:1047000003FB00F3C1F3C321B3FBF1F3D268054906
:10471000C2F30022D340054A0B60136010BC7047FF
:1047200000C304401820042080BA8C01102004200B
:104730001420042044F659020A4BDA605A6942F008
:1047400003025A61EFF3108272B64FF4E021064B78
:10475000064898605962BFF36F8FBFF34F8F82F3A3
:104760001088704700C0044000ED00E00000000029
:104770002DE9F8430F460968064621B300231D467C
:1047800070681C1D03441A0A22F0FF021FFA84F805
:1047900042EA13639CB20FFA88F2D1F808908118AC
:1047A00022B24444F368A4B23068C8470135A20776
:1047B0002DB223B203D023F0030304331BB257F806
:1047C00025100029DCD1B068BDE8F883034628B184
:1047D000044A1268D2E90510196070474FF0FF30A3
:1047E000704700BF1C2004202DE9F04F97B0209E99
:1047F0001F46731C08BF0026814614BF26EAE670D8
:104800003046002F00F0D28013460091684A0146DE
:10481000384601F033FFD9F804300446002B74D039
:104820001D68002D71D04FF0000BCDF81C90D946BB
:104830000DF1240A2B795F49022B96BF5E4A5F4A2D
:1048400052F8232050464B4601F05EFF287E5C491B
:104850005C4B2A68002818BF0B46311BCDE90023AA
:1048600021EAE1715346584A381901F007FF297CC3
:10487000564B574A0444002918BF1A46E97BAB68D7
:104880000491A87B311B0390687B21EAE1710290BF
:10489000287BCDE9002038194E4A01F0EFFE6B6904
:1048A000044403B31B68F3B14FF00408DFF838B1D8
:1048B0002A7E49491B68002A08BF59460A460393C5
:1048C0002868311B0092CDE901A021EAE171381975
:1048D000424A01F0D3FE6B69044453F8083008F1F2
:1048E0000408002BE4D1311B381921EAE1713C4A5C
:1048F00001F0C4FE079B09F101095B680A3453F813
:104900002950002D96D1DDF81C90D9F808309BB1C4
:104910001B688BB10425DFF8D480311B1B68381964
:1049200021EAE171424601F0A9FED9F808300444B9
:104930005B590435002BF0D1D9F80C309BB11B68C2
:104940008BB10425DFF8A880311B1B68381921EAD8
:10495000E171424601F092FED9F80C3004445B59F3
:104960000435002BF0D1D9F810309BB11B688BB106
:104970000425DFF88080311B1B68381921EAE171BA
:10498000424601F07BFED9F8103004445B590435EF
:10499000002BF0D1311B21EAE1713819114A01F0E5
:1049A0006DFE04F1090017B0BDE8F08F09AF2BE7E9
:1049B00084DD0000A8DD000058DD0000E8DE000016
:1049C00064DD00006CDD0000B0DD000074DD00007F
:1049D00078DD0000D8DD00007CDD000014DE000082
:1049E00044DE0000A8DE000080DD000050DE000094
:1049F00068DE000088DE000001F098BF074B10B4AD
:104A00001B681C7A2CB90A4610BC0146586AFCF790
:104A1000F9BD6FF0150010BC704700BF1C200420CA
:104A2000074B10B41B681C7A2CB90A4610BC01460F
:104A3000586AFCF7A9BD6FF0150010BC704700BFA5
:104A40001C20042000B589B0014601A802F04CF8F2
:104A5000064B01AA1B6869461869FDF70DF8002886
:104A6000B4BF0020009809B05DF804FB1C200420AE
:104A700010B50C46FFF7E6FF18B10369002023606C
:104A800010BD6FF0120010BD08B5FFF7DBFF18B1C5
:104A900000230361184608BD4FF0FF3008BD00BF7A
:104AA00010B51446FFF7CEFF78B14FF0FF3382699F
:104AB0001188C1F12001CB4034EA030302D1046123
:104AC000184610BD6FF0010010BD6FF0120010BD50
:104AD0002DE9F04182B00D4616469846FFF7B2FF29
:104AE0008469246A54B1D0E90437324600932946D8
:104AF00043463846A04702B0BDE8F0816FF00100A0
:104B0000F9E700BF10B50C46FFF79CFF8369DB692E
:104B10002BB1D0E904202146BDE8104018476FF0C2
:104B2000010010BD2DE9F04182B00D4616469846B1
:104B3000FFF788FF8469A46954B1D0E9043732468D
:104B40000093294643463846A04702B0BDE8F081AD
:104B50006FF00100F9E700BF10B50C46FFF772FFD8
:104B600083695B692BB1D0E904202146BDE8104080
:104B700018476FF0010010BD30B502464FF0FF3509
:104B800083B002AC44F8040D137863B101F010F85F
:104B900001990B784A1C184443785B0706D40192AC
:104BA0001378002BF2D1284603B030BD08460A2204
:104BB000214602F013F9019A0546E5E72DE9F04395
:104BC0000C68C1B04CB30025804689462E46D8E912
:104BD000022364686946D8F80000A04707462C1DE8
:104BE000D8F804003BBAA4B24351002F25B22844A0
:104BF00009DB694601F078FFBB071CBF27F00307FC
:104C000004373C4425B2013636B259F82640002C10
:104C1000DDD1284641B0BDE8F083204641B0BDE873
:104C2000F08300BF09B32DE9F041064615461F4643
:104C30000C4601E00C3414D02168284601F076FEC1
:104C40000028F7D1D6E90001D6E9022327B9646824
:104C5000A446BDE8F0416047A468A446BDE8F04121
:104C600060476FF00100BDE8F0816FF00100704710
:104C70002DE9F04184B00D4690461F469DF828600E
:104C8000FFF7E0FEE8B1D0E90524D4E902030021F2
:104C900000922A78CDE901878E4208BF034603912E
:104CA00042B119682A4601236846FFF7BBFF04B0EA
:104CB000BDE8F08119466846FFF75AFD04B0BDE82B
:104CC000F0816FF01200F2E72DE9F04F89B00F4646
:104CD00091460193FFF7B6FE002853D0834638462D
:104CE0008DF80A90FFF748FF00B2ADF808000130D8
:104CF00048D0DBF818305D682B6813B32E460024CB
:104D0000DFF88CA0DFF88C801B794146022B96BF20
:104D10001E4A524652F8232003A8234601F0F4FC11
:104D200003A9384601F002FE013424B218B93368F1
:104D30001A7E4A450AD055F8243005EB8406002B2C
:104D4000E2D16FF0010009B0BDE8F08FDBF814107C
:104D5000019A039112991278049113990591596956
:104D600002AB069342B10346019A096803A8FFF714
:104D700059FF09B0BDE8F08F03A8FFF71FFF09B086
:104D8000BDE8F08F4FF0FF30DDE700BF58DD0000D9
:104D9000E8DE0000A8DD00002DE9F04184B00D46FA
:104DA00090461F469DF82860FFF74CFEE8B1D0E919
:104DB0000534D4E90220002100932B78CDE9018746
:104DC0008E4208BF1046039143B10B462A46016844
:104DD0006846FFF727FF04B0BDE8F081014668464A
:104DE000FFF7ECFE04B0BDE8F0814FF0FF30F2E7D2
:104DF0002DE9F04F89B00F4691460193FFF722FE4F
:104E0000002832D0834638468DF80A90FFF7B4FE6A
:104E100000B2431CADF8080029D0DBF818305D68FB
:104E20002B6813B32E460024DFF884A0DFF88480BB
:104E30001B794146022B96BF1C4A524652F823204A
:104E400003A8234601F060FC03A9384601F06EFD7B
:104E5000013424B218B933681A7E4A450AD055F88D
:104E6000243005EB8406002BE2D16FF0010009B07D
:104E7000BDE8F08FDBF81410019A039112991278B3
:104E8000049113990591596902AB069342B1019AB5
:104E9000096803A80123FFF7C5FE09B0BDE8F08F3C
:104EA00003A8FFF765FC09B0BDE8F08F58DD0000EE
:104EB000E8DE0000A8DD0000006800F075B900BF62
:104EC0002DE9F043044683B00E4601201C2117460D
:104ED000984600F0E9FD00284AD04FF0FF33C0F8B3
:104EE0001480C7608661226A394600930546002314
:104EF0003046FFF779FC8046D4E905064644314642
:104F000001F0E8F90746002835D0206929460368F2
:104F10009847B0F1000921DB4FF00009E369E96827
:104F2000F61A226A3B44A86967610096FFF75CFCA9
:104F3000226A1449284601F0E7FBD4E906324344CB
:104F40004244C4E906321049606901F05BFC236AFF
:104F500001332362484603B0BDE8F083284600F0E1
:104F60003DFE384600F03AFE484603B0BDE8F08307
:104F70006FF00B09EEE7284600F030FE6FF00B09EA
:104F8000E8E700BFB4DE0000240E0420002973D03F
:104F90002DE9F047884607464821012000F084FDAE
:104FA000044600286BD02821012000F07DFD054635
:104FB00000285BD040F23C403249334A334B344EF8
:104FC0006161A2613349344AE361344B2662E16294
:104FD00022633349334A6363334E344BDFF8E4A032
:104FE000DFF8E4906C60A861A6636162A262E3638B
:104FF000C4E900A900F0EAFD6861002833D02C491B
:1050000001F0D2FB2B4901F06FFD4FF4866398F855
:105010000060EB612E7236BBD8F8041005F1240055
:10502000FCF72CFB00281EDB234BC4E900A96364BA
:10503000224A032105F11000FCF782FC00280DDB59
:10504000204600F043F8286028B130461C4B3D60F4
:105050001D60BDE8F0872869FCF7C8FC2B7A13B9FE
:10506000686AFCF7ADFB284600F0B8FD204600F06A
:10507000B5FD4FF0FF30ECE76FF0150070474FF0D3
:10508000FF30E6E7994D0000714C0000C94C00006C
:10509000F14D0000594B0000254B0000054B00006E
:1050A000A14A0000894A0000D14A0000714A00006C
:1050B000F0090420240E0420CD470000F949000027
:1050C0001C200420214A0000FD49000070B506465E
:1050D000082000F07BFD044638B14FF4805000F00A
:1050E00075FD0546606010B12660204670BD204603
:1050F00000F074FD2C46F8E72DE9F0430746006800
:1051000083B0856888462DB111464046A84703B054
:10511000BDE8F083561E1FD001F1FF392C4604E094
:1051200001250134B44217D03868036801210DF11C
:105130000700984700280FDD9DF807300A2B09F873
:10514000013FEDD1002DECD0A64205D00023A044B4
:10515000204608F8013CDAE76FF00400D7E700BF0B
:1051600070B5054608460C4601F01CFD2B6801464B
:105170005B682046BDE87040184700BF10B584B09A
:105180000B46084A04461021684601F077FA684643
:1051900001F008FD236801465B686846984704B043
:1051A00010BD00BFE4DE000030B5A1B0694680222A
:1051B0000546FFF7A1FF041E05DB6946284600F0FF
:1051C000D1F9041E02DB204621B030BD284621461D
:1051D000FFF7D4FF204621B030BD00BF30B50368D3
:1051E00083B004465B6C01A89847019801F0DAFC93
:1051F000054601462046FFF7C1FF236829465B6844
:10520000019898470A22236802A800F8052D5B68D8
:105210000121984703B030BDF0B5044683B01F4666
:10522000D4E900650846089B9DF824C0CAB1114620
:105230004FF48052CDE900523A46F569A847054639
:1052400029462046FFF79AFF002D14DD0A226368E5
:10525000691C5A55D4E900305B6803B0BDE8F040E2
:105260001847CDF800C02A46194676694FF4805396
:10527000B0470546E4E703B0F0BD00BF2DE9F04FAD
:1052800040F6FF7583B00D9E0446B54228BF3546F3
:1052900000680F46D0F800B0294660681646994667
:1052A000DDF830809DF838A0D847002263685A5551
:1052B00086B16368019525680093314643464A46A6
:1052C00038462D6AA8470146204603B0BDE8F04F96
:1052D000FFF754BFD4E90062CDF800A02B46414649
:1052E0003846B569A8470146204603B0BDE8F04FEF
:1052F000FFF744BF38B505680446084611461A460C
:105300006B6A984701462046BDE83840FFF736BF34
:10531000036810B59B6A0446084698470146204634
:10532000BDE81040FFF72ABF0368186900B10047C5
:10533000704700BF2DE9F0439046C3B00F461146B9
:105340000646FFF71BFFB8F1000F1FD044460025AB
:105350000CE0326802A9D2F8389038462A46C8478D
:105360000028034605440DDB241A10D03368B4F539
:10537000807F21461B6828BF4FF4807102A89847A0
:10538000031EE6DC184643B0BDE8F08343463268AE
:10539000526B1AB138464146904703464146304663
:1053A0000193FFF7EBFE019B184643B0BDE8F08385
:1053B0002DE9F04F0368C5B006468A460846DB6B08
:1053C000694615469847041E39DB3368DB6A1BB112
:1053D00029465046984704468DB300274FF00109EF
:1053E000DFF864B008E0336821465B6804A898479A
:1053F0002D1B4FF0000922D0B5F5807FA84628BFAD
:105400004FF4807832684346146B04A93A465046FC
:10541000A047044630462146FFF7B0FE002C474423
:105420000DDBB9F1000FDED0009B5A460A2101A81E
:1054300001F024F901A93046FFF792FED3E7204698
:1054400045B0BDE8F08F00BFDCDE000038B5036872
:1054500005461C6C14B10846A04704462846214660
:10546000FFF78CFE204638BD2DE9F04F894687B006
:10547000824620214846174601F0E4F905900028AD
:1054800066D004464FF0000B04F801BB0646062226
:105490002046314901F0B4FB00283BD007222F49B8
:1054A000204601F0ADFB002843D14FF0010808363B
:1054B0002021304601F0C6F90590002848D0044666
:1054C0004FF0000B04F801BB2021204601F0BAF98F
:1054D000031C18BF0123BB42059039D1EFB1074629
:1054E000002507F8015B38460A2205A901F076FC81
:1054F000059BBB422CD000282ADBCDE9010B009490
:105500005046434632464946FFF7B8FE284607B0A4
:10551000BDE8F08F07368046CAE75046CDE9004B1C
:10552000434632464946FFF777FE384607B0BDE8A6
:10553000F08F06220A49204601F062FB28B9F41DCB
:10554000804606464FF0010BBEE7D8465E46BBE7F5
:105550006FF01500DBE700BFECDE0000F4DE0000BA
:10556000FCDE0000F0B506468BB00D4611F8010BCD
:105570000A28FAD00D28F8D000285BD008227C49F0
:10558000284601F03DFB0446002855D00622794903
:10559000284601F035FB0446002864D005227649F0
:1055A000284601F02DFB002857D0062273492846D3
:1055B00001F026FB00285CD005227149284601F045
:1055C0001FFB0446002879D006226E49284601F0C8
:1055D00017FB0446002800F0978008226A492846F5
:1055E00001F00EFB00284AD008226849284601F045
:1055F00007FB002800F08E8009226549284601F04B
:10560000FFFA0746002800F09080042261492846EE
:1056100001F0F6FA002800F0A480284607225E492F
:1056200001F0EEFA002840F0A08030466FF0120141
:10563000FFF7A4FD0BB0F0BD0122584B02A8CDE945
:10564000002320212346564A01F018F802A93046CB
:10565000FFF786FD20460BB0F0BD0246691D3046BF
:10566000FFF702FFE6E73046FFF7B8FD20460BB034
:10567000F0BDA91D30460122FFF7F6FEDAE7083536
:105680002846202101F0DEF8029000286DD0044663
:10569000002304F8013B0A22204602A901F09EFBE8
:1056A000029B02469C4260D01B78002B5DD10028F3
:1056B0005BDB29463046FFF77BFEBBE70535284616
:1056C000202101F0BFF8029000284ED0074607F8CD
:1056D000014B38460A2202A901F080FB04460298D9
:1056E000874242D00378202B3FD1002C3DDB102293
:1056F0000021013001F040FC224603462946304695
:10570000FFF7F8FD002095E73046A91DFFF700FEE2
:1057100020468FE701460A2205F1080001F02CFC23
:1057200001463046FFF792FE84E7093528462021DE
:1057300001F088F80290C0B1044604F8017B0A2207
:10574000204602A901F04AFB029B02469C420CD073
:105750001B7853B9002808DB29463046FFF7EAFDDD
:1057600068E73046FFF7E0FD64E76FF0150061E79A
:1057700004DF00001CDF000024DF00002CDF00003D
:1057800034DF00003CDF000044DF000050DF000099
:105790005CDF000068DF000070DF0000CEAFC722D2
:1057A0000CDF000053B94AB9002908BF00281CBF0C
:1057B0004FF0FF314FF0FF3000F074B9ADF1080C3D
:1057C0006DE904CE00F006F8DDF804E0DDE902231F
:1057D00004B070472DE9F0478C460446089E002B24
:1057E0004BD18A42154667D9B2FA82F24AB1C2F168
:1057F000200701FA02F320FA07F7954047EA030C65
:1058000094404FEA154EBCFBFEF71FFA85F80EFBDD
:1058100017C307FB08F9210C41EA0343994509D94D
:10582000EB1807F1FF3180F01C81994540F2198196
:10583000023F2B44A3EB0903B3FBFEF00EFB103336
:1058400000FB08F1A4B244EA0344A14209D92C198F
:1058500000F1FF3380F00781A14240F20481023859
:105860002C4440EA07400027641A1EB10023D440AC
:10587000C6E900433946BDE8F0878B4209D9002EBE
:1058800000F0EC800027C6E9000138463946BDE843
:10589000F087B3FA83F7002F48D18B4202D38242BC
:1058A00000F2FB80841A61EB030301209C46002E6A
:1058B000E0D0C6E9004CDDE702B9FFDEB2FA82F2C1
:1058C000002A40F08F800127491B4FEA15481FFA34
:1058D00085F9B1FBF8FE08FB1E1109FB0EF04FEA3B
:1058E000144C4CEA0143984207D9EB180EF1FF31F2
:1058F00002D2984200F2CD808E461B1AB3FBF8F01C
:1059000008FB103309FB00F9A4B244EA0344A145A3
:1059100007D92C1900F1FF3302D2A14500F2B6805D
:105920001846A4EB090440EA0E409EE7C7F12005A3
:10593000BB4022FA05FC4CEA030C21FA05F44FEABD
:105940001C4EB4FBFEF91FFA8CF80EFB194420FA2A
:1059500005F3B94009FB08FA19430B0C43EA044468
:10596000A24502FA07F200FA07F30BD91CEB040474
:1059700009F1FF3080F08880A24540F28580A9F1CE
:1059800002096444A4EB0A04B4FBFEF00EFB1044CD
:1059900000FB08FA89B241EA0444A24508D91CEB8D
:1059A000040400F1FF316BD2A24569D90238644486
:1059B00040EA0940A0FB0289A4EB0A044C45414699
:1059C000CE4654D351D0002E69D05A1A64EB0E043F
:1059D00004FA05F522FA07F3FC401D43C6E900541A
:1059E000002747E79540C2F1200321FA03F04FEA70
:1059F0001548B0FBF8F71FFA85F908FB170024FAE1
:105A000003F3914007FB09FC0B43190C41EA0041E9
:105A10008C4504FA02F407D9691807F1FF3031D236
:105A20008C452FD9023F2944A1EB0C01B1FBF8F0C2
:105A300008FB101C00FB09FE99B241EA0C418E459F
:105A400007D9691800F1FF3318D28E4516D90238EC
:105A50002944A1EB0E0140EA07473AE737463046B2
:105A600008E70F46E6E61846FBE64345ABD2B8EB3F
:105A7000020169EB0C0201389646A4E71846E8E7F4
:105A8000084695E70746CFE781467BE702382C4476
:105A900047E7AEF1020E2B442FE7384607E73746BB
:105AA000E8E600BF704700BF024B0A46014618688F
:105AB00000F002B8300E042010B502FB01F100F036
:105AC00095F80446E8B150F8042C22F00302043A99
:105AD000242A1FD8132A16D900231B2AC0E9003311
:105AE0001DD9242AC0E9023308BFC0E904334FF0AE
:105AF000000314BF00F1100200F11802C2E90033E4
:105B00009360204610BD024600232046C2E90033C0
:105B1000936010BD002100F087FB204610BD00F10E
